:020000040800F2
:1000000000A00020C10600082106000827060008FD
:100010002D0600083306000839060008000000001D
:100020000000000000000000000000003F06000883
:100030004D060008000000005B0600086906000885
:100040001107000811070008110700081107000830
:100050001107000811070008110700081107000820
:100060001107000811070008110700081107000810
:100070001107000811070008110700081107000800
:10008000110700081107000811070008750600088D
:100090008906000811070008110700081107000869
:1000A00011070008110700081107000811070008D0
:1000B00011070008110700081107000811070008C0
:1000C00011070008110700081107000811070008B0
:1000D00011070008110700081107000811070008A0
:1000E0001107000811070008110700081107000890
:1000F0001107000811070008110700081107000880
:1001000000000000000000000000000011070008CF
:10011000110700081107000811070008110700085F
:10012000110700081107000811070008110700084F
:10013000110700081107000800000000000000007F
:10014000110700081107000811070008000000004F
:10015000000000000000000000000000000000009F
:10016000000000000000000011070008110700084F
:10017000110700080000000000000000000000005F
:08018000000000001107000857
:1001880010B5054C237833B9044B13B10448AFF3C9
:1001980000800123237010BD0C0000200000000027
:1001A800FC2B000808B5034B1BB103490348AFF308
:1001B800008008BD0000000010000020FC2B000893
:1001C80080B584B004AF00F0A1FA00F025F800F083
:1001D8009FF800F067F800F0BFF800F0DDF80123A1
:1001E800039300230293FF23019335230093DD2318
:1001F800CC221221AA2000F005F9054B0822002183
:10020800044800F0D9F84FF47A7000F0E5FAE6E710
:10021800500000200CF7FE0080B590B000AF07F149
:10022800180328220021184602F0DCFC3B1D00229E
:100238001A605A609A60DA601A610123BB614FF450
:100248008033FB6100233B620123BB6202237B6393
:100258004FF48033BB634FF4E013FB6307F11803DB
:10026800184601F0ADFB0346002B01D000F058F909
:100278000F237B600223BB600023FB604FF4806385
:100288003B6100237B613B1D0221184602F0A0FA66
:100298000346002B01D000F043F900BF4037BD46AC
:1002A80080BD000080B500AF174B184A1A60164B86
:1002B80018225A60144B00229A60134B0022DA600D
:1002C800114B4FF4E0221A610F4B4FF400125A61A0
:1002D8000D4B00221A760C4B01225A760A4B01224A
:1002E8009A76094B0022DA76074B00221A77064BDA
:1002F80001225A77044800F091FA0346002B01D0F6
:1003080000F00EF900BF80BD280000200064004006
:1003180080B483B000AF0F4B5B690E4A43F480038F
:1003280053610C4B5B6903F480037B607B68094B6A
:100338005B69084A43F480135361064B5B6903F415
:1003480080133B603B6800BF0C37BD465DF8047BFB
:10035800704700BF0010024080B58AB000AF00238C
:100368007B6100233B610123BB610023BB61002348
:100378003B6000237B600023BB600023FB600123FC
:100388003B623B461946034800F043FB00BF283751
:10039800BD4680BD2800002080B500AF054800F0AC
:1003A80002FC322000F018FA0321024800F02CFE6B
:1003B80000BF80BD2800002080B584B000AFF86081
:1003C800B9607A603B600C4AFB6853600A4ABB68B4
:1003D800D360094B04229A60074A7B681361064B75
:1003E80000221A75054B3A680349054800F01FFCBE
:1003F80000BF1037BD4680BD6400002058000020B3
:100408002800002090B482B000AF04460846114688
:100418001A462346FB710346BB710B467B71134694
:100428003B710E4AFB7913700C4ABB7953700B4A27
:100438007B799370094A3B79D370084A3B7C1371E6
:10044800064A3B7D5371054A3B7E9371034A3B7FC5
:10045800D37100BF0837BD4690BC704750000020DC
:1004680080B582B000AF78600B4B0C4A00217868E9
:1004780000F0B8FC4FF4FA7000F0AEF9074B5B6877
:1004880098B2064B1B69DBB2034A194600F008F81C
:1004980000BF0837BD4680BD5C0000207C000020FE
:1004A80080B582B000AF03463A60FB800B467B7193
:1004B800FB88174A53607B79154A13613B681A78A1
:1004C800144B1A703B685A78124B5A703B689A78EA
:1004D800104B9A703B68DA780E4BDA703B681A79E1
:1004E8000C4B1A713B685A790A4B5A713B689A79D6
:1004F800084B9A713B68DA79064BDA71064B054A64
:100508000349064800F093FB00BF0837BD4680BD8D
:10051800640000205000002058000020280000201F
:1005280080B400AF72B6FEE780B483B000AF0F4B63
:100538009B690E4A43F0010393610C4B9B6903F0DE
:1005480001037B607B68094BDB69084A43F08053F1
:10055800D361064BDB6903F080533B603B6800BF07
:100568000C37BD465DF8047B704700BF00100240A1
:1005780080B58AB000AF786007F1140300221A60D2
:100588005A609A60DA601A617B681B681F4A934256
:1005980037D11F4BDB691E4A43F00073D3611C4BF4
:1005A800DB6903F000733B613B69194B5B69184ACF
:1005B80043F480135361164B5B6903F48013FB60AB
:1005C800FB6803237B610223BB610023FB610323D8
:1005D8003B6207237B6207F1140319460D4801F0BB
:1005E80075F800220221132001F039F8132001F0D8
:1005F80052F800220121142001F031F8142001F0F2
:100608004AF800BF2837BD4680BD00BF00640040DF
:1006180000100240000C004880B400AFFEE780B430
:1006280000AFFEE780B400AFFEE780B400AFFEE79E
:1006380080B400AFFEE780B400AF00BFBD465DF8F0
:10064800047B704780B400AF00BFBD465DF8047BF3
:10065800704780B400AF00BFBD465DF8047B7047AB
:1006680080B500AF00F098F800BF80BD80B500AF3E
:10067800024800F0EFFC00BF80BD00BF280000204A
:1006880080B500AF024800F0E5FC00BF80BD00BFA8
:100698002800002080B400AF064BD3F88830054A04
:1006A80043F47003C2F8883000BFBD465DF8047B90
:1006B800704700BF00ED00E0DFF834D00D480E4968
:1006C8000E4A002302E0D458C4500433C4188C42A4
:1006D800F9D30B4A0B4C002301E013600432A24209
:1006E800FBD3FFF7D7FF02F059FAFFF769FDFEE7E2
:1006F80000A00020000000200C0000204C2C000866
:100708000C0000209C000020FEE7000080B500AF30
:10071800084B1B68074A43F010031360032000F0DE
:1007280093FF002000F008F8FFF7FEFE00231846AC
:1007380080BD00BF0020024080B582B000AF786065
:10074800124B1A68124B1B7819464FF47A73B3FB95
:10075800F1F3B2FBF3F3184600F0ABFF0346002BAE
:1007680001D001230EE07B680F2B0AD8002279689C
:100778004FF0FF3000F073FF064A7B6813600023D8
:1007880000E0012318460837BD4680BD0000002060
:10079800080000200400002080B400AF064B1B783E
:1007A8001A46064B1B681344044A136000BFBD4633
:1007B8005DF8047B704700BF080000209800002007
:1007C80080B400AF034B1B681846BD465DF8047B38
:1007D800704700BF9800002080B584B000AF7860F3
:1007E800FFF7EEFFB8607B68FB60FB68B3F1FF3F83
:1007F80005D0094B1B781A46FB681344FB6000BF01
:10080800FFF7DEFF0246BB68D31AFA689A42F7D8A8
:1008180000BF1037BD4680BD0800002080B584B0F9
:1008280000AF78607B68002B01D10123EDE07B6885
:1008380093F82030DBB2002B02D17868FFF798FEDE
:100848007B681B681A687B681B6822F002021A60C2
:10085800FFF7B6FFF86012E0FFF7B2FF0246FB6849
:10086800D31A0A2B0BD97B685B6A43F400327B6886
:100878005A627B68052283F820200123C5E07B6843
:100888001B685B6803F00203002BE5D17B681B68DB
:100898001A687B681B6842F001021A60FFF790FF34
:1008A800F86012E0FFF78CFF0246FB68D31A0A2BA8
:1008B8000BD97B685B6A43F400327B685A627B68B9
:1008C800052283F8202001239FE07B681B685B6872
:1008D80003F00103002BE5D07B681B7E012B08D1B8
:1008E8007B681B681A687B681B6842F080021A6084
:1008F80007E07B681B681A687B681B6822F0800227
:100908001A607B685B7E012B08D17B681B681A68BC
:100918007B681B6842F040021A6007E07B681B682E
:100928001A687B681B6822F040021A607B689B7E0D
:10093800012B08D17B681B681A687B681B6842F02A
:1009480020021A6007E07B681B681A687B681B68CE
:1009580022F020021A607B68DB7E012B08D17B68BD
:100968001B681A687B681B6822F010021A6007E08F
:100978007B681B681A687B681B6842F010021A6063
:100988007B681B7F012B08D17B681B681A687B6812
:100998001B6842F008021A6007E07B681B681A6847
:1009A8007B681B6822F008021A607B685B7F012B5A
:1009B80008D17B681B681A687B681B6842F00402D0
:1009C8001A6007E07B681B681A687B681B6822F05E
:1009D80004021A607B689A687B68DB681A437B6844
:1009E8001B691A437B685B6942EA03017B685B68A1
:1009F8005A1E7B681B680A43DA617B6800225A62C8
:100A08007B68012283F82020002318461037BD4652
:100A180080BD80B487B000AF786039607B681B68A0
:100A28007B617B6893F82030FB74FB7C012B03D03F
:100A3800FB7C022B40F0AA807B69D3F8003243F09C
:100A480001027B69C3F800223B685B6903F01F035E
:100A5800012202FA03F3FB607B69D3F81C22FB68CE
:100A6800DB431A407B69C3F81C223B68DB69002B17
:100A780023D17B69D3F80C22FB68DB431A407B69DE
:100A8800C3F80C223B68DB6819043B685B689BB2BF
:100A98003A68526919437B69483243F832103B6817
:100AA8009B6819043B681B689AB23B685B690A43F8
:100AB80079694833DB000B445A603B68DB69012BDA
:100AC80022D17B69D3F80C22FB681A437B69C3F8EF
:100AD8000C223B681B6819043B685B689BB23A6848
:100AE800526919437B69483243F832103B689B6866
:100AF80019043B68DB689AB23B685B690A43796909
:100B08004833DB000B445A603B689B69002B09D1D2
:100B18007B69D3F80422FB68DB431A407B69C3F87E
:100B2800042207E07B69D3F80422FB681A437B6937
:100B3800C3F804223B681B69002B09D17B69D3F8F1
:100B48001422FB68DB431A407B69C3F8142207E0D0
:100B58007B69D3F81422FB681A437B69C3F8142213
:100B68003B681B6A012B07D17B69D3F81C22FB6801
:100B78001A437B69C3F81C227B69D3F8003223F03F
:100B880001027B69C3F80022002306E07B685B6AE8
:100B980043F480227B685A62012318461C37BD46FD
:100BA8005DF8047B704780B584B000AF78607B68DF
:100BB80093F82030DBB2012B2ED17B68022283F818
:100BC80020207B681B681A687B681B6822F001027A
:100BD8001A60FFF7F5FDF86012E0FFF7F1FD024635
:100BE800FB68D31A0A2B0BD97B685B6A43F4003283
:100BF8007B685A627B68052283F82020012312E073
:100C08007B681B685B6803F00103002BE5D17B68F8
:100C180000225A62002306E07B685B6A43F40022E4
:100C28007B685A62012318461037BD4680BD80B4E0
:100C380089B000AFF860B9607A603B60FB6893F8F0
:100C48002030FB77FB681B689B68BB61FB7F012B2F
:100C580003D0FB7F022B40F0B880BB6903F08063B0
:100C6800002B0AD1BB6903F00063002B05D1BB69D7
:100C780003F08053002B00F0A080BB691B0E03F02B
:100C880003037B617B69022B07D9FB685B6A43F42A
:100C98000002FB685A6201239EE001227B699A40A8
:100CA8003B681A60BB689B68002B0DD1BB681B684A
:100CB8005A05BB68DB68F96809681A437B69183309
:100CC8001B010B441A600FE0BB685B68DA00BB6865
:100CD8009B681A43BB68DB68F96809681A437B6933
:100CE80018331B010B441A60FB681968BB681A6942
:100CF8007B6918331B010B4404331A60BB681B7DE6
:100D0800012B11D1FB681A687B6918331B01134446
:100D180004331B68FA68116843F480727B691833DE
:100D28001B010B4404331A607B6807331B781A06CF
:100D38007B6806331B781B041A437B6805331B78D2
:100D48001B0213437A68043212781046FA68116855
:100D580043EA00027B691B010B4403F5C6731A6062
:100D68007B6803331B781A067B6802331B781B04E5
:100D78001A437B6801331B781B0213437A68127885
:100D88001046FA68116843EA00027B691B010B44AC
:100D980003F5C4731A60FB681A687B6918331B0172
:100DA80013441B68FA68116843F001027B69183321
:100DB8001B010B441A6000230EE0FB685B6A43F4D6
:100DC8000012FB685A62012306E0FB685B6A43F481
:100DD8008022FB685A62012318462437BD465DF815
:100DE800047B704780B487B000AFF860B9607A6060
:100DF8003B60FB6893F82030FB75FB7D012B03D02B
:100E0800FB7D022B40F0F380BB68002B0ED1FB6802
:100E18001B68DB6803F00303002B16D1FB685B6AD1
:100E280043F40012FB685A620123E7E0FB681B6881
:100E38001B6903F00303002B07D1FB685B6A43F4CB
:100E48000012FB685A620123D8E0FB681A68BB6885
:100E58001B331B0113441B6803F004027B689A6070
:100E68007B689B68002B0CD1FB681A68BB681B3336
:100E78001B0113441B685B0DC3F30A027B681A60ED
:100E88000BE0FB681A68BB681B331B0113441B6823
:100E9800DB0823F060427B685A60FB681A68BB680D
:100EA8001B331B0113441B6803F002027B68DA60E2
:100EB800FB681A68BB681B331B01134404331B68A7
:100EC80003F00F027B681A61FB681A68BB681B3362
:100ED8001B01134404331B681B0ADAB27B689A614E
:100EE800FB681A68BB681B331B01134404331B6877
:100EF8001B0C9AB27B685A61FB681A68BB681B01B5
:100F0800134403F5DC731B68DAB23B681A70FB689C
:100F18001A68BB681B01134403F5DC731B681A0AC3
:100F28003B680133D2B21A70FB681A68BB681B01B0
:100F3800134403F5DC731B681A0C3B680233D2B206
:100F48001A70FB681A68BB681B01134403F5DC734D
:100F58001B681A0E3B680333D2B21A70FB681A6812
:100F6800BB681B01134403F5DE731A683B6804333E
:100F7800D2B21A70FB681A68BB681B01134403F5E8
:100F8800DE731B681A0A3B680533D2B21A70FB6815
:100F98001A68BB681B01134403F5DE731B681A0C3F
:100FA8003B680633D2B21A70FB681A68BB681B012B
:100FB800134403F5DE731B681A0E3B680733D2B27D
:100FC8001A70BB68002B08D1FB681B68DA68FB68DD
:100FD8001B6842F02002DA6007E0FB681B681A69A8
:100FE800FB681B6842F020021A61002306E0FB68D8
:100FF8005B6A43F48022FB685A62012318461C3757
:10100800BD465DF8047B704780B485B000AF78605A
:1010180039607B6893F82030FB73FB7B012B02D08F
:10102800FB7B022B09D17B681B6859697B681B68AD
:101038003A680A435A61002306E07B685B6A43F416
:1010480080227B685A62012318461437BD465DF832
:10105800047B704780B58AB000AF786000237B625C
:101068007B681B685B693B627B681B685B68FB612C
:101078007B681B689B68BB617B681B68DB687B615E
:101088007B681B681B693B617B681B689B69FB600D
:101098003B6A03F00103002B7CD0BB6903F001031A
:1010A800002B23D07B681B6801229A60BB6903F080
:1010B8000203002B03D0786800F07DF916E0BB69C5
:1010C80003F00403002B04D07B6A43F400637B62C3
:1010D8000CE0BB6903F00803002B04D07B6A43F4DF
:1010E80080537B6202E0786800F083F9BB6903F4FF
:1010F8008073002B24D07B681B684FF480729A6041
:10110800BB6903F40073002B03D0786800F05DF925
:1011180016E0BB6903F48063002B04D07B6A43F4B8
:1011280000537B620CE0BB6903F40063002B04D01E
:101138007B6A43F480437B6202E0786800F063F9DD
:10114800BB6903F48033002B24D07B681B684FF401
:1011580080329A60BB6903F40033002B03D07868AF
:1011680000F03DF916E0BB6903F48023002B04D09E
:101178007B6A43F400437B620CE0BB6903F4002301
:10118800002B04D07B6A43F480337B6202E07868EA
:1011980000F043F93B6A03F00803002B0CD07B698D
:1011A80003F01003002B07D07B6A43F400737B62C3
:1011B8007B681B681022DA603B6A03F00403002B8B
:1011C8000BD07B6903F00803002B06D07B681B68F3
:1011D8000822DA60786800F02AF93B6A03F0020313
:1011E800002B09D07B681B68DB6803F00303002B26
:1011F80002D07868FFF734F93B6A03F04003002B0C
:101208000CD03B6903F01003002B07D07B6A43F432
:1012180080637B627B681B6810221A613B6A03F05B
:101228002003002B0BD03B6903F00803002B06D0EA
:101238007B681B6808221A61786800F00CF93B6A21
:1012480003F01003002B09D07B681B681B6903F0AF
:101258000303002B02D0786800F0F3F83B6A03F42C
:101268000033002B0BD0FB6903F01003002B06D0D2
:101278007B681B6810225A60786800F0F6F83B6AB1
:1012880003F48033002B0BD0FB6903F00803002B19
:1012980006D07B681B6808225A60786800F0EFF86F
:1012A8003B6A03F40043002B75D0FB6903F0040389
:1012B800002B6CD03B6A03F48073002B08D0FB68CA
:1012C80003F00103002B03D07B6A43F001037B6228
:1012D8003B6A03F40073002B08D0FB6803F0020399
:1012E800002B03D07B6A43F002037B623B6A03F462
:1012F8008063002B08D0FB6803F00403002B03D0A5
:101308007B6A43F004037B623B6A03F40063002BAF
:101318003DD0FB6803F07003002B38D0FB6803F066
:101328007003302B17D0302B04D8102B09D0202B6A
:101338000CD024E0502B18D0602B1BD0402B0FD0A2
:101348001DE07B6A43F008037B6218E07B6A43F088
:1013580010037B6213E07B6A43F020037B620EE09C
:101368007B6A43F040037B6209E07B6A43F08003B9
:101378007B6204E07B6A43F480737B6200BF7B6816
:101388001B689A697B681B6822F070029A617B6807
:101398001B6804225A607B6A002B08D07B685A6A53
:1013A8007B6A1A437B685A62786800F072F800BF5B
:1013B8002837BD4680BD80B483B000AF786000BFD9
:1013C8000C37BD465DF8047B704780B483B000AF2E
:1013D800786000BF0C37BD465DF8047B704780B469
:1013E80083B000AF786000BF0C37BD465DF8047B62
:1013F800704780B483B000AF786000BF0C37BD463B
:101408005DF8047B704780B483B000AF786000BF9C
:101418000C37BD465DF8047B704780B483B000AFDD
:10142800786000BF0C37BD465DF8047B704780B418
:1014380083B000AF786000BF0C37BD465DF8047B11
:10144800704780B483B000AF786000BF0C37BD46EA
:101458005DF8047B704780B483B000AF786000BF4C
:101468000C37BD465DF8047B704780B483B000AF8D
:10147800786000BF0C37BD465DF8047B704780B4C8
:1014880083B000AF786000BF0C37BD465DF8047BC1
:10149800704780B483B000AF786000BF0C37BD469A
:1014A8005DF8047B7047000080B485B000AF7860B9
:1014B8007B6803F00703FB600C4BDB68BB60BA6812
:1014C8004FF6FF031340BB60FB681A02BB68134367
:1014D80043F0BF6343F40033BB60044ABB68D36086
:1014E80000BF1437BD465DF8047B704700ED00E08F
:1014F80080B400AF044BDB681B0A03F007031846EF
:10150800BD465DF8047B704700ED00E080B483B011
:1015180000AF0346FB7197F90730002B0BDBFB7913
:1015280003F01F02074997F907305B09012000FA09
:1015380002F241F8232000BF0C37BD465DF8047B5A
:10154800704700BF00E100E080B483B000AF0346FD
:101558003960FB7197F90730002B0ADB3B68DAB278
:101568000C4997F907301201D2B20B4483F80023D3
:101578000AE03B68DAB20849FB7903F00F03043B41
:101588001201D2B20B441A7600BF0C37BD465DF883
:10159800047B704700E100E000ED00E080B489B012
:1015A80000AFF860B9607A60FB6803F00703FB617D
:1015B800FB69C3F10703042B28BF0423BB61FB6944
:1015C8000433062B02D9FB69033B00E000237B614F
:1015D8004FF0FF32BB6902FA03F3DA43BB681A40E3
:1015E8007B699A404FF0FF317B6901FA03F3D943D5
:1015F8007B680B40134318462437BD465DF8047BCF
:101608007047000080B582B000AF78607B68013B0E
:10161800B3F1807F01D301230FE00A4A7B68013BC5
:1016280053600F214FF0FF30FFF78EFF054B00226C
:101638009A60044B07221A60002318460837BD46F3
:1016480080BD00BF10E000E080B582B000AF7860D8
:101658007868FFF729FF00BF0837BD4680BD80B511
:1016680086B000AF0346B9607A60FB7300237B61E4
:10167800FFF73EFF78617A68B9687869FFF78EFFEF
:10168800024697F90F3011461846FFF75DFF00BF75
:101698001837BD4680BD80B582B000AF0346FB71E8
:1016A80097F907301846FFF731FF00BF0837BD46E6
:1016B80080BD80B582B000AF78607868FFF7A2FF80
:1016C800034618460837BD4680BD000080B487B081
:1016D80000AF7860396000237B6154E13B681A6889
:1016E80001217B6901FA03F31340FB60FB68002BBF
:1016F80000F046813B685B68012B0BD03B685B6858
:10170800022B07D03B685B68112B03D03B685B68F2
:10171800122B30D17B689B683B617B695B0003229D
:1017280002FA03F3DB433A6913403B613B68DA682A
:101738007B695B0002FA03F33A6913433B617B68F8
:101748003A699A607B685B683B6101227B6902FAAF
:1017580003F3DB433A6913403B613B685B681B0951
:1017680003F001027B6902FA03F33A6913433B6110
:101778007B683A695A607B68DB683B617B695B0020
:10178800032202FA03F3DB433A6913403B613B68E7
:101798009A687B695B0002FA03F33A6913433B6179
:1017A8007B683A69DA603B685B68022B03D03B6868
:1017B8005B68122B23D17B69DA087B68083253F8FF
:1017C80022303B617B6903F007039B000F2202FA7A
:1017D80003F3DB433A6913403B613B681A697B6951
:1017E80003F007039B0002FA03F33A6913433B61D2
:1017F8007B69DA087B680832396943F822107B680C
:101808001B683B617B695B00032202FA03F3DB433D
:101818003A6913403B613B685B6803F003027B69EC
:101828005B0002FA03F33A6913433B617B683A6948
:101838001A603B685B6803F08053002B00F0A080BF
:10184800584B9B69574A43F001039361554B9B6979
:1018580003F00103BB60BB68534A7B699B080233F2
:1018680052F823303B617B6903F003039B000F228E
:1018780002FA03F3DB433A6913403B617B68B3F137
:10188800904F19D07B68494A934213D07B68484AE5
:1018980093420DD07B68474A934207D07B68464AFB
:1018A800934201D1042308E0052306E0032304E062
:1018B800022302E0012300E000237A6902F0030218
:1018C800920093403A6913433B6137497B699B080F
:1018D80002333A6941F82320384B1B683B61FB68A7
:1018E800DB433A6913403B613B685B6803F4803330
:1018F800002B03D03A69FB6813433B612F4A3B69CD
:1019080013602E4B5B683B61FB68DB433A6913400D
:101918003B613B685B6803F40033002B03D03A69F2
:10192800FB6813433B61254A3B695360234B9B6823
:101938003B61FB68DB433A6913403B613B685B688A
:1019480003F48013002B03D03A69FB6813433B610F
:101958001A4A3B699360194BDB683B61FB68DB43C0
:101968003A6913403B613B685B6803F40013002B42
:1019780003D03A69FB6813433B61104A3B69D36063
:101988007B6901337B613B681A687B6922FA03F340
:10199800002B7FF4A3AE00BF1C37BD465DF8047B67
:1019A800704700BF001002400000014000040048DA
:1019B80000080048000C00480010004800040140DE
:1019C80080B5ADF5007D00AF3B1D18603B1D1B6861
:1019D800002B02D1012300F0F4BE3B1D1B681B68DD
:1019E80003F00103002B00F06A81B34B5B6803F03E
:1019F8000C03042B0CD0B04B5B6803F00C03082BD2
:101A080059D1AD4B5B6803F48033B3F5803F52D1B5
:101A18004FF40033C7F8F031D7F8F03193FAA3F355
:101A2800C7F8EC31D7F8EC31B3FA83F3DBB25B09D2
:101A3800DBB243F00103DBB2012B02D19E4B1B68E2
:101A480015E04FF40033C7F8E831D7F8E83193FAD6
:101A5800A3F3C7F8E4314FF40033C7F8E031D7F8FF
:101A6800E03193FAA3F3C7F8DC31934B5B6A4FF488
:101A78000032C7F8D821D7F8D82192FAA2F2C7F8CD
:101A8800D421D7F8D421B2FA82F2D2B242F020029D
:101A9800D2B202F01F02012101FA02F21340002B18
:101AA80000F00C813B1D1B685B68002B40F0068131
:101AB800012300F086BE3B1D1B685B68B3F5803FC1
:101AC80006D17D4B1B687C4A43F48033136030E0B9
:101AD8003B1D1B685B68002B0CD1774B1B68764A53
:101AE80023F480331360744B1B68734A23F48023F8
:101AF80013601EE03B1D1B685B68B3F5A02F0CD17B
:101B08006D4B1B686C4A43F4802313606A4B1B6857
:101B1800694A43F4803313600BE0674B1B68664ADD
:101B280023F480331360644B1B68634A23F48023D7
:101B38001360614BDB6A23F00F023B1D1B689B6837
:101B48005D491343CB623B1D1B685B68002B59D072
:101B5800FEF736FEC7F8F8010AE0FEF731FE024646
:101B6800D7F8F831D31A642B02D9032300F029BE21
:101B78004FF40033C7F8D031D7F8D03193FAA3F334
:101B8800C7F8CC31D7F8CC31B3FA83F3DBB25B09B1
:101B9800DBB243F00103DBB2012B02D1464B1B68D9
:101BA80015E04FF40033C7F8C831D7F8C83193FAB5
:101BB800A3F3C7F8C4314FF40033C7F8C031D7F8DE
:101BC800C03193FAA3F3C7F8BC313B4B5B6A4FF4BF
:101BD8000032C7F8B821D7F8B82192FAA2F2C7F8AC
:101BE800B421D7F8B421B2FA82F2D2B242F020027C
:101BF800D2B202F01F02012101FA02F21340002BB7
:101C0800ABD05CE0FEF7DCFDC7F8F8010AE0FEF7B0
:101C1800D7FD0246D7F8F831D31A642B02D903232B
:101C280000F0CFBD4FF40033C7F8B031D7F8B0316A
:101C380093FAA3F3C7F8AC31D7F8AC31B3FA83F30E
:101C4800DBB25B09DBB243F00103DBB2012B02D14B
:101C5800194B1B6815E04FF40033C7F8A831D7F8C3
:101C6800A83193FAA3F3C7F8A4314FF40033C7F8A7
:101C7800A031D7F8A03193FAA3F3C7F89C310E4BE3
:101C88005B6A4FF40032C7F89821D7F8982192FA86
:101C9800A2F2C7F89421D7F89421B2FA82F2D2B20C
:101CA80042F02002D2B202F01F02012101FA02F230
:101CB8001340002BABD102E00010024000BF3B1DD7
:101CC8001B681B6803F00203002B00F06F81D04BE8
:101CD8005B6803F00C03002B0BD0CD4B5B6803F063
:101CE8000C03082B6CD1CA4B5B6803F48033002BC0
:101CF80066D10223C7F89031D7F8903193FAA3F34D
:101D0800C7F88C31D7F88C31B3FA83F3DBB25B09AF
:101D1800DBB243F00103DBB2012B02D1BC4B1B68E1
:101D280013E00223C7F88831D7F8883193FAA3F370
:101D3800C7F884310223C7F88031D7F8803193FA85
:101D4800A3F3C7F87C31B24B5B6A0222C7F878214B
:101D5800D7F8782192FAA2F2C7F87421D7F874213B
:101D6800B2FA82F2D2B242F02002D2B202F01F02DC
:101D7800012101FA02F21340002B07D03B1D1B681A
:101D88001B69012B02D0012300F01BBDA04B1B686F
:101D980023F0F8023B1D1B685B69F821C7F8701136
:101DA800D7F8701191FAA1F1C7F86C11D7F86C1136
:101DB800B1FA81F1C9B28B40954913430B60F5E044
:101DC8003B1D1B681B69002B00F085800123C7F8A9
:101DD8006831D7F8683193FAA3F3C7F86431D7F8B4
:101DE8006431B3FA83F3DBB203F1845303F584134C
:101DF8009B001A4601231360FEF7E2FCC7F8F801BE
:101E08000AE0FEF7DDFC0246D7F8F831D31A022BB8
:101E180002D9032300F0D5BC0223C7F86031D7F8F4
:101E2800603193FAA3F3C7F85C31D7F85C31B3FAA1
:101E380083F3DBB25B09DBB243F00103DBB2012BB6
:101E480002D1734B1B6813E00223C7F85831D7F847
:101E5800583193FAA3F3C7F854310223C7F8503125
:101E6800D7F8503193FAA3F3C7F84C31684B5B6A43
:101E78000222C7F84821D7F8482192FAA2F2C7F8F7
:101E88004421D7F84421B2FA82F2D2B242F02002B9
:101E9800D2B202F01F02012101FA02F21340002B14
:101EA800AFD05B4B1B6823F0F8023B1D1B685B69D6
:101EB800F821C7F84011D7F8401191FAA1F1C7F8F5
:101EC8003C11D7F83C11B1FA81F1C9B28B405049A5
:101ED80013430B606AE00123C7F83831D7F838316B
:101EE80093FAA3F3C7F83431D7F83431B3FA83F34C
:101EF800DBB203F1845303F584139B001A460023D5
:101F08001360FEF75DFCC7F8F8010AE0FEF758FC1D
:101F18000246D7F8F831D31A022B02D9032300F06E
:101F280050BC0223C7F83031D7F8303193FAA3F305
:101F3800C7F82C31D7F82C31B3FA83F3DBB25B093D
:101F4800DBB243F00103DBB2012B02D1304B1B683B
:101F580013E00223C7F82831D7F8283193FAA3F3FE
:101F6800C7F824310223C7F82031D7F8203193FA73
:101F7800A3F3C7F81C31264B5B6A0222C7F8182165
:101F8800D7F8182192FAA2F2C7F81421D7F8142129
:101F9800B2FA82F2D2B242F02002D2B202F01F02AA
:101FA800012101FA02F21340002BAFD13B1D1B683F
:101FB8001B6803F00803002B00F0DA803B1D1B6848
:101FC8009B69002B69D00123C7F81031D7F810316D
:101FD80093FAA3F3C7F80C31D7F80C31B3FA83F3AB
:101FE800DBB21A460B4B13449B001A4601231360BD
:101FF800FEF7E6FBC7F8F8010EE0FEF7E1FB024644
:10200800D7F8F831D31A022B06D90323D9E300BF36
:1020180000100240208190100223C7F80831D7F839
:10202800083193FAA3F3C7F8043107F58073022245
:102038001A6007F580731B6893FAA3F207F1FC0393
:102048001A6007F1F80302221A6007F1F8031B6807
:1020580093FAA3F207F1F4031A60A54B5A6A07F141
:10206800F0030221196007F1F0031B6893FAA3F14A
:1020780007F1EC03196007F1EC031B68B3FA83F36B
:10208800DBB243F06003DBB203F01F03012101FA66
:1020980003F31340002BB0D06AE007F1E8030122F4
:1020A8001A6007F1E8031B6893FAA3F207F1E40347
:1020B8001A6007F1E4031B68B3FA83F3DBB21A462C
:1020C8008C4B13449B001A4600231360FEF778FBE1
:1020D800C7F8F80109E0FEF773FB0246D7F8F831B4
:1020E800D31A022B01D903236BE307F1E003022281
:1020F8001A6007F1E0031B6893FAA3F207F1DC0307
:102108001A6007F1D80302221A6007F1D8031B6886
:1021180093FAA3F207F1D4031A6007F1D00302225D
:102128001A6007F1D0031B6893FAA3F207F1CC03F6
:102138001A606F4B5A6A07F1C8030221196007F148
:10214800C8031B6893FAA3F107F1C403196007F1E8
:10215800C4031B68B3FA83F3DBB243F06003DBB25A
:1021680003F01F03012101FA03F31340002BB2D13E
:102178003B1D1B681B6803F00403002B00F058810B
:10218800002387F8FF315A4BDB6903F08053002B9B
:1021980012D1574BDB69564A43F08053D361544BF5
:1021A800DB6903F0805207F108031A6007F108039E
:1021B8001B68012387F8FF314F4B1B6803F48073BA
:1021C800002B1AD14C4B1B684B4A43F480731360A5
:1021D800FEF7F6FAC7F8F80109E0FEF7F1FA024649
:1021E800D7F8F831D31A642B01D90323E9E2424B1B
:1021F8001B6803F48073002BEFD03B1D1B68DB6862
:10220800012B06D13A4B1B6A394A43F0010313628A
:102218002FE03B1D1B68DB68002B0CD1344B1B6A7D
:10222800334A23F001031362314B1B6A304A23F00F
:10223800040313621DE03B1D1B68DB68052B0CD1F2
:102248002B4B1B6A2A4A43F004031362284B1B6A70
:10225800274A43F0010313620BE0254B1B6A244A0B
:1022680023F001031362224B1B6A214A23F0040363
:1022780013623B1D1B68DB68002B6BD0FEF7A0FACE
:10228800C7F8F8010BE0FEF79BFA0246D7F8F831D9
:10229800D31A41F28832934201D9032391E207F11C
:1022A800C00302221A6007F1C0031B6893FAA3F265
:1022B80007F1BC031A6007F1B80302221A6007F19C
:1022C800B8031B6893FAA3F207F1B4031A6007F185
:1022D800B4031B68B3FA83F3DBB25B09DBB243F0E8
:1022E8000203DBB2022B09D1014B1B6A14E000BFC9
:1022F80000100240208190100070004007F1B003E8
:1023080002221A6007F1B0031B6893FAA3F207F1DF
:10231800AC031A60BB4B5B6A07F1A802022111608B
:1023280007F1A802126892FAA2F107F1A40211605B
:1023380007F1A4021268B2FA82F2D2B242F0400265
:10234800D2B202F01F02012101FA02F21340002B5F
:1023580099D063E0FEF734FAC7F8F8010BE0FEF70E
:102368002FFA0246D7F8F831D31A41F2883293424D
:1023780001D9032325E207F1A00302221A6007F11D
:10238800A0031B6893FAA3F207F19C031A6007F1F4
:10239800980302221A6007F198031B6893FAA3F2C4
:1023A80007F194031A6007F194031B68B3FA83F3E7
:1023B800DBB25B09DBB243F00203DBB2022B02D1D2
:1023C800904B1B6A0DE007F1900302221A6007F197
:1023D80090031B6893FAA3F207F18C031A60894BE8
:1023E8005B6A07F188020221116007F1880212680E
:1023F80092FAA2F107F18402116007F184021268CF
:10240800B2FA82F2D2B242F04002D2B202F01F0215
:10241800012101FA02F21340002BA0D197F8FF31F5
:10242800012B05D1774BDB69764A23F08053D361C2
:102438003B1D1B68DB69002B00F0C281714B5B6898
:1024480003F00C03082B00F09C813B1D1B68DB6923
:10245800022B40F0148107F180034FF080721A605C
:1024680007F180031B6893FAA3F207F17C031A6053
:1024780007F17C031B68B3FA83F3DBB203F18453DF
:1024880003F584139B001A4600231360FEF798F99E
:10249800C7F8F80109E0FEF793F90246D7F8F831D2
:1024A800D31A022B01D903238BE107F178034FF0EC
:1024B80000721A6007F178031B6893FAA3F207F118
:1024C80074031A6007F174031B68B3FA83F3DBB271
:1024D8005B09DBB243F00103DBB2012B02D1494BAC
:1024E8001B681BE007F170034FF000721A6007F1D8
:1024F80070031B6893FAA3F207F16C031A6007F1E3
:1025080068034FF000721A6007F168031B6893FABA
:10251800A3F207F164031A603A4B5B6A07F16002A1
:102528004FF00071116007F16002126892FAA2F18F
:1025380007F15C02116007F15C021268B2FA82F2DC
:10254800D2B242F02002D2B202F01F02012101FAF7
:1025580002F21340002B9ED12A4B5B6823F47412BD
:102568003B1D1B68596A3B1D1B681B6A0B432549A9
:1025780013434B6007F158034FF080721A6007F15C
:1025880058031B6893FAA3F207F154031A6007F182
:1025980054031B68B3FA83F3DBB203F1845303F5E6
:1025A80084139B001A4601231360FEF709F9C7F844
:1025B800F80109E0FEF704F90246D7F8F831D31A12
:1025C800022B01D90323FCE007F150034FF00072FE
:1025D8001A6007F150031B6893FAA3F207F14C0342
:1025E8001A6007F14C031B68B3FA83F3DBB25B098B
:1025F800DBB243F00103DBB2012B05D1014B1B68B1
:102608001EE000BF0010024007F148034FF00072BF
:102618001A6007F148031B6893FAA3F207F1440311
:102628001A6007F140034FF000721A6007F1400387
:102638001B6893FAA3F207F13C031A60634B5B6AC9
:1026480007F138024FF00071116007F13802126883
:1026580092FAA2F107F13402116007F1340212680C
:10266800B2FA82F2D2B242F02002D2B202F01F02D3
:10267800012101FA02F21340002B9BD0A0E007F1E0
:1026880030034FF080721A6007F130031B6893FA29
:10269800A3F207F12C031A6007F12C031B68B3FAA5
:1026A80083F3DBB203F1845303F584139B001A46CA
:1026B80000231360FEF784F8C7F8F80109E0FEF775
:1026C8007FF80246D7F8F831D31A022B01D9032331
:1026D80077E007F128034FF000721A6007F128032A
:1026E8001B6893FAA3F207F124031A6007F1240385
:1026F8001B68B3FA83F3DBB25B09DBB243F0010377
:10270800DBB2012B02D1314B1B681BE007F1200320
:102718004FF000721A6007F120031B6893FAA3F2C6
:1027280007F11C031A6007F118034FF000721A60D2
:1027380007F118031B6893FAA3F207F114031A6050
:10274800224B5B6A07F110024FF00071116007F12C
:102758001002126892FAA2F107F10C02116007F157
:102768000C021268B2FA82F2D2B242F02002D2B25D
:1027780002F01F02012101FA02F21340002B9ED140
:102788001EE03B1D1B68DB69012B01D1012318E00A
:102798000E4B5B68C7F8F431D7F8F43103F4803294
:1027A8003B1D1B681B6A9A4208D1D7F8F43103F421
:1027B80070123B1D1B685B6A9A4201D0012300E03E
:1027C8000023184607F50077BD4680BD001002407B
:1027D80080B59EB000AF7860396000237B677B6866
:1027E800002B01D1012362E1904B1B6803F0070322
:1027F8003A689A4210D98D4B1B6823F007028B491F
:102808003B6813430B60894B1B6803F007033A6866
:102818009A4201D001234AE17B681B6803F0020356
:10282800002B08D0824B5B6823F0F0027B689B6822
:102838007F4913434B607B681B6803F00103002B3F
:1028480000F0DC807B685B68012B3CD14FF40033DF
:102858003B673B6F93FAA3F3FB66FB6EB3FA83F314
:10286800DBB25B09DBB243F00103DBB2012B02D11F
:102878006F4B1B680FE04FF40033BB66BB6E93FAD7
:10288800A3F37B664FF400333B663B6E93FAA3F3E6
:10289800FB65674B5B6A4FF40032BA65BA6D92FA12
:1028A800A2F27A657A6DB2FA82F2D2B242F02002CE
:1028B800D2B202F01F02012101FA02F21340002BEA
:1028C8007BD10123F3E07B685B68022B3CD14FF09E
:1028D80000733B653B6D93FAA3F3FB64FB6CB3FA9F
:1028E80083F3DBB25B09DBB243F00103DBB2012BFC
:1028F80002D14F4B1B680FE04FF00073BB64BB6CF9
:1029080093FAA3F37B644FF000733B643B6C93FA38
:10291800A3F3FB63464B5B6A4FF00072BA63BA6B72
:1029280092FAA2F27A637A6BB2FA82F2D2B242F0E7
:102938002002D2B202F01F02012101FA02F2134072
:10294800002B3AD10123B2E002233B633B6B93FA9D
:10295800A3F3FB62FB6AB3FA83F3DBB25B09DBB276
:1029680043F00103DBB2012B02D1314B1B680DE0B0
:102978000223BB62BB6A93FAA3F37B6202233B6226
:102988003B6A93FAA3F3FB61294B5B6A0222BA61A3
:10299800BA6992FAA2F27A617A69B2FA82F2D2B28A
:1029A80042F02002D2B202F01F02012101FA02F223
:1029B8001340002B01D1012379E01D4B5B6823F004
:1029C80003027B685B681A4913434B60FDF7F8FE06
:1029D80078670AE0FDF7F4FE02467B6FD31A41F2EE
:1029E8008832934201D9032361E0114B5B6803F0FD
:1029F8000C027B685B689B009A42EBD10B4B1B680F
:102A080003F007033A689A4214D2084B1B6823F074
:102A1800070206493B6813430B60044B1B6803F02D
:102A280007033A689A4205D0012340E0002002409B
:102A3800001002407B681B6803F00403002B08D0D9
:102A48001D4B5B6823F4E0627B68DB681A4913431B
:102A58004B607B681B6803F00803002B09D0164BFA
:102A68005B6823F460527B681B69DB0012491343DF
:102A78004B6000F029F801460F4B5B6803F0F00348
:102A8800F0223A613A6992FAA2F2FA60FA68B2FA66
:102A980082F2D2B2D340094AD35C21FA03F3084A3E
:102AA8001360084B1B681846FDF746FE00231846BE
:102AB8007837BD4680BD00BF00100240142C0008C6
:102AC800000000200400002080B48BB000AF002379
:102AD800FB610023BB6100237B6200237B61002331
:102AE8003B62294B5B68FB61FB6903F00C03042B19
:102AF80002D0082B03D03CE0244B3B623CE0FB694E
:102B080003F470134FF47012BA60BA6892FAA2F222
:102B18007A607A68B2FA82F2D2B2D3401C4AD35CA5
:102B28007B61194BDB6A03F00F030F223A613A69A4
:102B380092FAA2F2FA60FA68B2FA82F2D2B2D340FA
:102B4800144AD35CBB61FB6903F48033002B08D0C3
:102B58000E4ABB69B2FBF3F27B6902FB03F37B62AB
:102B680004E07B690C4A02FB03F37B627B6A3B62ED
:102B780002E0064B3B6200BF3B6A18462C37BD4655
:102B88005DF8047B704700BF0010024000127A0015
:102B9800242C0008342C000800093D0070B50D4EA7
:102BA8000D4CA41BA4100025A54209D10B4E0C4CBA
:102BB80000F020F8A41BA4100025A54205D170BD83
:102BC80056F8253098470135EEE756F825309847EE
:102BD8000135F2E7442C0008442C0008442C000876
:102BE800482C000802440346934200D1704703F87A
:102BF800011BF9E7F8B500BFF8BC08BC9E46704752
:0C2C0800F8B500BFF8BC08BC9E46704741
:102C14000000000000000000010203040607080988
:102C240002030405060708090A0B0C0D0E0F101009
:102C34000102030405060708090A0B0C0D0E0F1008
:042C4400AD010008D6
:042C480089010008F6
:0C2C4C0000127A001000000001000000DF
:04000005080006C128
:00000001FF
